:020000040800F2
:1000000010070020290200086D0F0008510E00089B
:10001000690F000845040008F11100080000000005
:10002000000000000000000000000000A10F000818
:1000300049040008000000009D0F0008D50F0008CB
:10004000430200084302000843020008430200087C
:10005000430200084302000843020008430200086C
:10006000430200084302000843020008430200085C
:10007000430200084302000843020008430200084C
:10008000430200084302000843020008430200083C
:10009000430200084302000843020008430200082C
:1000A000430200084302000843020008430200081C
:1000B000430200084302000843020008430200080C
:1000C00043020008430200084302000843020008FC
:1000D00043020008430200084302000843020008EC
:1000E00043020008430200084302000843020008DC
:1000F00043020008430200084302000843020008CC
:1001000043020008430200084302000843020008BB
:1001100043020008430200084302000843020008AB
:10012000430200084302000843020008430200089B
:10013000430200084302000843020008430200088B
:10014000430200084302000843020008430200087B
:10015000430200084302000843020008430200086B
:10016000430200084302000843020008430200085B
:100170004302000843020008430200080000000098
:10018000430200084302000800F002F800F03CF8C7
:100190000AA090E8000C82448344AAF10107DA45E2
:1001A00001D100F031F8AFF2090EBAE80F0013F0F8
:1001B000010F18BFFB1A43F001031847D4110000C8
:1001C000F4110000103A24BF78C878C1FAD8520759
:1001D00024BF30C830C144BF04680C6070470000C1
:1001E0000023002400250026103A28BF78C1FBD840
:1001F000520728BF30C148BF0B6070471FB501F0E0
:10020000ADF81FBD10B510BD00F0E9F81146FFF7BD
:10021000F5FF01F05DF800F007F903B4FFF7F2FF16
:1002200003BC01F011F80000094880470948004765
:10023000FEE7FEE7FEE7FEE7FEE7FEE7FEE7FEE796
:10024000FEE7FEE704480549054A064B70470000F3
:100250008510000889010008100100201007002007
:100260001003002010030020704753EA020C00F036
:1002700069802DE9F04B4FF00006002B1FBFB3FA49
:1002800083F503FA05F424FA05F65E4012BF16431F
:10029000B2FA82F502FA05F4C5F120051EBF22FA72
:1002A00005FC44EA0C04203556EA044C4FEA144499
:1002B00018BF641C4FF000084FF00009904271EB2A
:1002C000030C39D3002919BFB1FA81F701FA07F6F7
:1002D000B0FA80F700FA07F6C7F120071EBF20FA30
:1002E00007FC46EA0C062037B6FBF4FCA7EB050733
:1002F000103F07F01F0BCBF120062CFA06F60CFA84
:100300000BFB44BFB3460026202FA4BF5E464FF030
:10031000000B5BEA060C08BF4FF0010B19EB0B0951
:1003200048EB0608ABFB027C06FB02CC0BFB03CCC4
:10033000C01B71EB0C01C1E70B4602464146484623
:10034000BDE8F08B13B5084318BF4FF0FF300146EE
:10035000AFF30080BDE81C407047000010B50446B4
:1003600003E000F0ABFF401C09D014F8010B054975
:100370000028F6D1BDE810400A2000F09FBF4FF0E2
:10038000FF3010BD700000204FF0000200B5134692
:1003900094469646203922BFA0E80C50A0E80C50A5
:1003A000B1F12001BFF4F7AF090728BFA0E80C5056
:1003B00048BF0CC05DF804EB890028BF40F8042B4F
:1003C00008BF704748BF20F8022B11F0804F18BFBC
:1003D00000F8012B704770477047704770477546AB
:1003E00000F02CF8AE4605006946534620F00700A1
:1003F000854618B020B5FFF725FFBDE820404FF037
:1004000000064FF000074FF000084FF0000BAC461D
:10041000ACE8C009ACE8C009ACE8C009ACE8C00968
:1004200021F007018D46704710B50446AFF30080F8
:100430002046BDE81040FFF7F0BE000000487047BE
:1004400010000020FEE7000070470000EFF310806E
:1004500072B600BFFEE7000080B580B200F002FF78
:1004600080BD00002DE9F04F83B000F13E4202F163
:10047000FF724FEAB22241F600470192C4F202072E
:1004800008224FF0010E00254FF0000A4FF000083F
:10049000B84208BF072200920AE000BF08F1010835
:1004A0000AF1040AB8F1100F05F1020500F0A4806A
:1004B0000C680EFA08FB14EA0B09EFD04C6804F044
:1004C000030CACF1010EBEF1010F11D803228768B5
:1004D00002FA05F6CA68B743AA403A438260426806
:1004E000C4F3001722EA0B0207FA08F73A43426006
:1004F000BCF1030F1CD0C26803238E6803FA05F712
:10050000BA4306FA05F73A43BCF1020FC2600FD1B5
:100510006FF0030202EA580202440AF01C060F239D
:10052000176A03FA06F40B69A743B3403B4313620F
:10053000026803234F68AB409A4307F00303AB40C4
:100540001A4317F4403F4FF0010E0260A6D000227C
:1005500043F644030292C4F202031A6843F60044CD
:1005600042F480421A601A68C4F2010402F4804224
:100570000292029A28F003024FF6084B2244CFF66B
:10058000FF7B52F80B300AF00C070F26BE4023EA1F
:10059000060C019B009E072B38BF1E4606FA07F784
:1005A00047EA0C0342F80B30A2684B6842EA09079D
:1005B00043F60C4CDE0258BF22EA0907A760C4F2DA
:1005C000010CDCF800209E0242EA090758BF22EA2B
:1005D0000907CCF8007062689E0342EA090758BF19
:1005E00022EA090767602268DB0342EA090358BF71
:1005F00022EA0903236051E703B0BDE8F08F000051
:10060000426902EA0103914341EA03418161704773
:10061000002A08BF090481617047000040F20C10F5
:10062000C2F200000068704740F2080040F20C116E
:10063000C2F20000C2F2000100780A6810440860AB
:100640007047000080B543F60040C4F20200016824
:1006500041F400710160016841F48061016001684A
:1006600041F480710160032000F05CF80F2000F07D
:1006700005F800F02BF8002080BD0000B0B540F276
:100680000802C2F2000240F204011278C2F2000134
:100690004FF47A730968B3FBF2F20446B1FBF2F14E
:1006A000084600F001FB0F2C4FF001050CD858B99B
:1006B0004FF0FF3021460022002500F023F840F2E1
:1006C0000C00C2F2000004602846B0BD82B00020D9
:1006D00043F640010190C4F202014A6842F48042AC
:1006E0004A604A6802F480420192019A00900868C8
:1006F00040F080500860086800F08050009000983A
:1007000002B0704770B514460D46064600F072FD03
:100710002946224600F02CFC0146304600F072FDCE
:1007200070BD000080B500F07FFD80BD2DE9F04177
:10073000002800F08B8043F60808C4F20208044643
:10074000D8F8F8030D4600F00700884207D288F871
:10075000F853D8F8F80300F00700A84276D12068D3
:10076000810717D5410705D5D8F8001041F4E051AD
:10077000C8F80010010705D5D8F8001041F4604111
:10078000C8F80010D8F80010A26821F0F001114359
:10079000C8F80010C0073FD1D8F8F80300F00700F0
:1007A000A84207D988F8F853D8F8F80300F00700F2
:1007B000A8424BD12068410707D5D8F80010E2685D
:1007C00021F4E0511143C8F80010000708D5D8F80B
:1007D0000000216920F4604040EAC100C8F8000030
:1007E00000F07EF8D8F8001041F27632C1F3031120
:1007F000C0F60002515C40F2040220FA01F140F21E
:100800000C00C2F200000068C2F200021160FFF7A3
:1008100035FF0020BDE8F0816068811E022907D203
:1008200058F8081C89015CBF0120BDE8F08110E088
:10083000012807D158F8081C89035CBF0120BDE8D6
:10084000F08106E058F8081C890702D40120BDE8B1
:10085000F081D8F8001021F003010843C8F8000027
:10086000FFF7DCFE064641F2883700BFD8F80000EB
:10087000616800F00C00B0EB810F8DD0FFF7CEFE69
:10088000801BB842F2D90320BDE8F08140F2040099
:10089000C2F200000068704780B5FFF7F7FF43F62B
:1008A0000801C4F20201096841F28632C1F38221D3
:1008B000C0F60002515CC84080BD000080B5FFF763
:1008C000E5FF43F60801C4F20201096841F28632ED
:1008D000C1F34231C0F60002515CC84080BD000047
:1008E00010B543F60404C4F20204606800F00C0082
:1008F00008280AD0042819BF42F20040C0F2F400D0
:1009000047F64000C0F27D1010BD206821682368C2
:10091000490247F64001C0F27D1100F03F02C3F3E7
:1009200088105CBF42F20041C0F2F401A1FB00015B
:100930000023FFF79AFC21680222C1F3014102EB78
:100940004101B0FBF1F010BD2DE9F04182B000286B
:1009500000F0A2800446007843F60006C007C4F207
:10096000020643D0B06800F00C00042805D13068BE
:1009700080033BD56068C8BB8EE0B06800F00C0017
:10098000082802D170684002F1D46568B5F5A02F3F
:100990000AD0B5F5803F0BD0306820F4803030604D
:1009A000306820F4802006E0306840F48020306019
:1009B000306840F480303060FFF730FE002D05468F
:1009C00011D000BF3068800310D4FFF727FE401B12
:1009D0006428F7D922E100BFFFF720FE401B6428FE
:1009E0004FF0030055D830688003F5D42078800795
:1009F0001AD5B06810F00C0F09D0B06800F00C00E8
:100A0000082840F08A807068400200F186803068D3
:100A1000800702D5E06801283ED13068216920F0C6
:100A2000F80040EAC10030602078000738D4207810
:100A300040074CD4A5695DB3B06800F00C000828ED
:100A400040F09E80012D27D07068E16900F480029B
:100A50008A4221D1216A00F03F028A421CD147F626
:100A6000C071626A0140B1EB821F15D1A26A0023F6
:100A7000CFF6FF7303EBC23200F440316FF30F0285
:100A8000914209D1E16A00F07060B0EB016F03D1CF
:100A9000002002B0BDE8F081012002B0BDE8F08185
:100AA0006069002840F20000C4F2472057D00121BD
:100AB000C0F8801EFFF7B2FD054600BF706F8007CB
:100AC000B5D4FFF7ABFD401B0228F7D9A6E0306C88
:100AD00010F080580AD100200190306C40F0805016
:100AE0003064306C00F080500190019847F20007AC
:100AF000C4F200073868C00524D4386840F4807018
:100B00003860FFF78BFD05463868C0051AD4FFF73B
:100B100085FD401B0228F7D980E0E068002851D00D
:100B20000020C4F2472001210160FFF777FD054650
:100B3000306880073FF571AFFFF770FD401B02285A
:100B4000F6D96BE0A568052D50D0012D52D0306F3D
:100B500020F001003067306F20F004004DE00021EC
:100B6000C0F8801EFFF75AFD054600BF706F800772
:100B70007FF55DAFFFF752FD401B0228F6D94DE02F
:100B80000027C4F2472700203866FFF747FD022DF3
:100B900005460BD13068800158D5FFF73FFD401B5B
:100BA00002284FF00300F5D973E700BF30688001D9
:100BB0007FF56EAFFFF732FD401B02284FF00300B8
:100BC000F4D966E70020C4F2472000210160FFF756
:100BD00025FD0546306880077FF526AFFFF71EFD2F
:100BE000401B02284FF00300F4D952E7306F40F069
:100BF00004003067306F40F001003067FFF70EFDF2
:100C0000002D054641F2883714D000BF306F8007B1
:100C100013D4FFF703FD401BB842F7D9032002B0FD
:100C2000BDE8F081FFF7FAFC401BB8424FF003002B
:100C30003FF62FAF306F8007F4D4B8F1000F7FF488
:100C4000F9AE306C20F080503064F3E604F11C05FE
:100C50002FCD08430021CFF6FF7140EA821001EB4F
:100C6000C3316FF30F0140EA056008437060012053
:100C70003866FFF7D3FC0446306880013FF508AFC3
:100C8000FFF7CCFC001B02284FF00300F4D900E76B
:100C90004EF21001CEF200010A68042822F004028C
:100CA00008BF04320A60704780B500F07BF980BD50
:100CB000002804BF0120704710B5044690F83D009D
:100CC00028B9002084F83C00204600F021F82420B8
:100CD00084F83D002068C16821F40051C1602046BD
:100CE00000F0DAF92068016921F49041016141695D
:100CF00021F02A014161C16841F40051C160002026
:100D00002021206484F83D1084F83E1010BD0000BE
:100D100080B586B041F200010068C4F201010022F2
:100D200088420592CDE903220292019201D006B0D9
:100D300080BD43F630000092C4F20200436943F0E4
:100D400010034361436903F010030093009B00927A
:100D5000036843F001030360006800F001000090A5
:100D600000984FF4C06001900220CDE902020320F8
:100D700004900720059001F5704001A9FFF772FB70
:100D800006B080BD2DE9F04381B0044690F83D00E7
:100D900020280BD10E4600294FF0010055D01746F0
:100DA000002A52D094F83C00012803D1022001B05F
:100DB000BDE8F083012084F83C004FF000092120B9
:100DC0001D46C4F8409084F83D00FFF727FCA78437
:100DD000E784A1680746B1F5805F07D12069002844
:100DE0001CBF30464E46B046064601E04FF00008B4
:100DF00084F83C9007E000BF16F8010B21684860BA
:100E0000E08C0138E084E08C80B1204680213A46B5
:100E10002B4600F0AFF980B9002EEDD138F8020B67
:100E200021686FF35F2048600026E9E720464021F3
:100E30003A462B4600F09EF918B1032001B0BDE8F8
:100E4000F083202084F83D00002001B0BDE8F0834D
:100E5000FEE700002DE9F04186B0002743F63000A0
:100E60000597CDE90377CDE901770097C4F2020039
:100E7000016841F2004441F0040101600168C4F2DC
:100E8000020401F004010091009900970168012219
:100E900041F02001016001684FF0010801F02001DC
:100EA000009100990097016841F08001016001689C
:100EB00001F08001009100990097016841F0010163
:100EC0000160016801F0010100910099009701683B
:100ED00041F00201016000684FF4C86100F00200B7
:100EE000009000982046FFF793FB20464FF4807156
:100EF0000022FFF78DFBA4F5406528460121012261
:100F0000FFF786FB4FF4E86001AECDE9010820460B
:100F10003146CDE90377FFF7A5FA28463146CDE9FA
:100F20000188CDE90377FFF79DFA06B0BDE8F081AF
:100F300080B540F2C80041F20001C2F20000C4F2E4
:100F4000010100234FF00C0C4FF4E13280E80E0059
:100F5000C0E90333C0E905C3C361FFF7A9FE002858
:100F600018BFFFF773FA80BDFEE70000FEE7000040
:100F700000F0070080F00703042B28BF04234FF084
:100F8000FF3C03380CFA03F338BF0020994381403B
:100F90000CFA00F022EA0000084370477047000096
:100FA00070470000B0B501380024B4EB106F1CBFCF
:100FB0000120B0BD4EF21005CEF2000568604FF082
:100FC000FF300F2100F01EF90720AC60286020469A
:100FD000B0BD000080B5FFF727FB80BD70B592B0B3
:100FE00006AC20463021FFF7CFF9002543F640003C
:100FF0000595CDE90355CDE901550095C4F20200F0
:101000000168022641F080510160006800F08050C4
:101010000090009847F200000095C4F200000168BB
:1010200041F480410160006800F480400090009825
:10103000012006904FF4803007904FF480000D900F
:1010400019200E904FF4A870CDE90F0604201190DE
:1010500020460C96FFF778FC88B90F20CDE90106F1
:101060004FF4A05004904FF48050059001A8052142
:101070000395FFF75BFB002804BF12B070BDFFF7BC
:10108000E5F900004EF68850CEF20000016841F408
:10109000700101607047000010B504460068D4E993
:1010A00002C22369016921F440511143016162695F
:1010B00043EA0C01E3691143C268194349F20C6326
:1010C0009A431143C1604169A26921F4407141F220
:1010D0000043114340F48062C4F201039A4241612B
:1010E00002D1FFF7EBFB01E0FFF7D6FBE169636894
:1010F0001922B1F5004FA0FB02011CD15A00DB0FF1
:10110000FFF7B3F848F21F51C5F2EB11A0FB012322
:101110005A096FF0630302FB0300322303EBC000A4
:10112000A0FB01014FF4F87000EA111000EB02106F
:10113000C1F342111AE09A009B0FFFF796F848F2AC
:101140001F51C5F2EB11A0FB01235A096FF0630395
:1011500002FB0300322303EB0010A0FB0101F0208F
:1011600000EA511000EB0210C1F34311226808435A
:10117000906010BD2DE9F041044600680068084009
:10118000884202D10020BDE8F0811D460E469046FF
:101190005F1C04E0206800683040B042F2D0002FAD
:1011A000F8D02DB1FFF73AFAA0EB0800A842F1D928
:1011B000206850E8030F216820F4D07041E8030252
:1011C000002AF5D1206850E8050F216820F00100C1
:1011D00041E80502002AF5D1202084F83D0084F87A
:1011E0003E00002084F83C000320BDE8F0810000B0
:1011F000FEE700004EF60C50CEF200000068C0F38F
:10120000022070474EF6145300F00F02CEF2000396
:1012100009011A4400F16043B0F1FF3FC8BF03F574
:1012200064421170704700004EF60C51CEF200017E
:101230000A684FF6FF031A4060F30A2242F080600A
:1012400040F0FD70086070477047000010B504461C
:101250000420FFF71DFD40F2C400C2F2000004604C
:1012600010BD000010B5002808BF10BD044600BF27
:101270004FF47A7000F004F8013CF9D110BD000081
:1012800080B54EF2180140F2C402CEF20001C2F263
:10129000000251F804CC1268002302FB00FE08682B
:1012A0000A689042FCD003449B1A904298BF634462
:1012B0007345104628BF80BDF2E7000041F20001EF
:1012C000C4F201010A685206FCD5C2B24A607047F6
:1012D00040F60004C4F20204FFF7B4F9A820FFF7B7
:1012E000B5FFFFF77BFEFFF7B5FDFFF721FE40F2EC
:1012F000C800C2F200000FA10D224FF47A73FFF76D
:1013000041FD10A0FFF72AF811A504F5406600BFC3
:1013100020460121FFF774F92846FFF71FF84FF424
:101320007A70FFF799F830464FF48071FFF768F94B
:10133000EEE700BF496E69742066696E6973680DD7
:101340000A0000007072696E746628290D000000A2
:101350004C454434206F70656E0D0000F1EE100AAC
:101360004FF6FF71C0F2C03120EA010040F040703A
:10137000E1EE100A704700000000000000000102CA
:10138000030406070809000000000102030400002E
:10139000B01300080000002010000000C401000885
:1013A000C01300081000002000070000E001000842
:1013B000010000000024F400010000001000000003
:040000050800018965
:00000001FF
