:020000040800F2
:1000000060070020D5020008712B00087D28000839
:100010006D2B0008B91500080D3400080000000021
:10002000000000000000000000000000C9300008CF
:10003000BD15000800000000E12B00082131000878
:10004000EF020008EF020008EF020008EF020008CC
:10005000EF020008EF020008EF020008EF020008BC
:10006000EF020008EF020008EF020008EF020008AC
:10007000EF020008EF020008EF020008EF0200089C
:10008000EF020008EF020008EF020008EF0200088C
:10009000EF020008EF020008EF020008EF0200087C
:1000A000EF020008EF020008EF020008EF0200086C
:1000B000EF020008EF020008EF020008EF0200085C
:1000C000EF020008EF020008EF020008EF0200084C
:1000D000EF020008EF020008EF020008EF0200083C
:1000E000EF020008EF020008EF020008EF0200082C
:1000F000EF020008EF020008EF020008EF0200081C
:10010000EF020008EF020008EF020008EF0200080B
:10011000EF020008EF020008EF020008EF020008FB
:10012000EF020008EF020008EF020008EF020008EB
:10013000EF020008EF020008EF020008EF020008DB
:10014000EF020008EF020008EF020008EF020008CB
:10015000EF020008EF020008EF020008EF020008BB
:10016000EF020008EF020008EF020008EF020008AB
:10017000EF020008EF020008EF0200080000000094
:10018000EF020008EF02000800F002F800F092F819
:100190000AA090E8000C82448344AAF10107DA45E2
:1001A00001D100F087F8AFF2090EBAE80F0013F0A2
:1001B000010F18BFFB1A43F0010318475C3E000013
:1001C0007C3E0000103A24BF78C878C1FAD85207A4
:1001D00024BF30C830C144BF04680C6070470000C1
:1001E0000023002400250026103A28BF78C1FBD840
:1001F000520728BF30C148BF0B6070476E2900F01E
:10020000D981702900F00F83662903F05A86652989
:1002100003F05786672903F05486612903F053865B
:1002200003681B0A28BF41F08001692900F086811C
:10023000642900F08381752900F080816F2900F026
:100240009D82782900F0DB82E92900F03782E429D9
:1002500000F03482F52900F03182EF2900F09A8213
:10026000F82900F0DA820368DB0928BF41F0800139
:10027000632900F0F387732900F0F887E32901F080
:100280000380F32901F00880002070471FB503F0B8
:100290000BFE01F05BF804000020002103F0EEFDEE
:1002A000401C60600020002103F0D2FDE0601FBD13
:1002B00010B510BD01F01CF81146FFF7E7FF03F081
:1002C00079F901F0F9F803B4FFF7F2FF03BC03F08A
:1002D000E7F800000948804709480047FEE7FEE7C5
:1002E000FEE7FEE7FEE7FEE7FEE7FEE7FEE7FEE7E6
:1002F00004480549054A064B70470000E9310008EB
:1003000089010008600100206007002060030020D0
:1003100060030020704753EA020C00F069802DE969
:10032000F04B4FF00006002B1FBFB3FA83F503FA22
:1003300005F424FA05F65E4012BF1643B2FA82F5C0
:1003400002FA05F4C5F120051EBF22FA05FC44EAB5
:100350000C04203556EA044C4FEA144418BF641CC0
:100360004FF000084FF00009904271EB030C39D3B5
:10037000002919BFB1FA81F701FA07F6B0FA80F740
:1003800000FA07F6C7F120071EBF20FA07FC46EA6D
:100390000C062037B6FBF4FCA7EB0507103F07F06F
:1003A0001F0BCBF120062CFA06F60CFA0BFB44BF10
:1003B000B3460026202FA4BF5E464FF0000B5BEA39
:1003C000060C08BF4FF0010B19EB0B0948EB0608B0
:1003D000ABFB027C06FB02CC0BFB03CCC01B71EB1E
:1003E0000C01C1E70B46024641464846BDE8F08B8A
:1003F00013B5084318BF4FF0FF300146AFF300803C
:10040000BDE81C40704700000FB4044910B503AAB2
:10041000029800F0E3F810BC5DF814FB70000020B7
:100420004FF0000200B5134694469646203922BF8D
:10043000A0E80C50A0E80C50B1F12001BFF4F7AFD8
:10044000090728BFA0E80C5048BF0CC05DF804EBBA
:10045000890028BF40F8042B08BF704748BF20F828
:10046000022B11F0804F18BF00F8012B7047704726
:1004700070477047704770B5044685690068C106CB
:1004800001D5302600E02026C00707D070BDD4E992
:10049000012130469047206A401C20626D1EF6D52F
:1004A00070BD70B5044685690078C00707D170BD7E
:1004B000D4E9012120209047206A401C20626D1E53
:1004C000F6D570BD09684A0501D540B27047C90527
:1004D000FCD500B2704709684A0501D5C0B2704723
:1004E000C905FCD580B2704770B50C460546012A97
:1004F00005D02878800600D5EA69002302E00123B0
:1005000005E05B1C934202D2E05C0028F9D1A869A7
:10051000E618C01AA861286A184428622846FFF71E
:10052000AAFF04E0D5E9012114F8010B9047B44279
:10053000F8D32846FFF7B5FF70BD00002DE9F04164
:100540000646002410687529314616A510D0FFF71D
:10055000B9FF002802DA404213A507E031688A0794
:1005600001D512A502E0490704D511A5012401E037
:10057000FFF7B1FF00210A2206F1240709E0B0FBD2
:10058000F2FCB0FBF2F302FB1C003030785418464A
:10059000491C0028F3D123462A463046BDE8F041E5
:1005A00000F055BA000000002D0000002B000000F4
:1005B0002000000011680268006A530501D5087028
:1005C0000AE0D30501D5088006E0130603D5C2175B
:1005D000C1E9000200E0086001207047074B70B5D8
:1005E0000D467B4400F01DFE0446284600F058FEF0
:1005F00010B14FF0FF3070BD204670BD9F2F00003E
:100600002DE9FF5F15468A460446DFF8AC80F844C2
:100610000027D8E900103E46CDE9001010E03AF876
:1006200016106A4602A800F03FFE411C07D0217850
:10063000890603D5E269391891420DD80744761C22
:100640002078800602D5E069B84205DDAE42E6DBDF
:100650003AF816000028E2D1A069C01BA06120462C
:10066000FFF709FFD8E90010CDE90010002017E0DE
:100670003AF818106A4602A800F016FEB0F1FF3FE3
:1006800081460BD000250DF1080B05E0D4E90121CE
:100690001BF8050090476D1C4D45F7D308F101008C
:1006A000B0428046E4DB206A384420622046FFF7EF
:1006B000F8FEBDE8FF9F0000BA3800002DE9F041C8
:1006C0008046D21D22F007020025D2E90002F5295A
:1006D00015A614D0011E72F1000106DA0023D0EB3A
:1006E000030063EB020211A608E0D8F800108B07A4
:1006F00001D50FA602E0490701D50EA60125114636
:10070000002408F1240704E000F05CF930323A5587
:10071000641C50EA0102F7D12B463246214640467E
:10072000BDE8F04100F093B9000000002D0000008A
:100730002B0000002000000030B4002100F1240450
:1007400008E002F00705D208303542EA4372DB08C0
:100750006554491C52EA0305F3D10468002310A232
:10076000250708D504F020040C4304D0C4690123F4
:100770000CA2641EC46130BC00F069B910B5044617
:1007800021461068FFF7A7FE02462046BDE810404C
:100790000023D1E7D21D22F00701D1E90023CBE7E6
:1007A0000000000030000000F0B40D46018809058B
:1007B00002D5214C7C4402E01F4C7C440E340021C5
:1007C00000F1240608E002F00F071209E75D42EA93
:1007D00003721B097754491C52EA0307F3D10278CC
:1007E0000023120704D5702D06D009B1022311345D
:1007F0002246F0BC00F02BB901231034F8E770B5A5
:1008000004460D4621461068FFF765FE024629465C
:100810002046BDE870400023C6E7D21D22F0070342
:10082000D3E90023C0E70368126843F020030360A4
:100830000823C3610023B7E71C3700002DE9F05FF0
:10084000894604464FF0000ADFF874B1FB44C0F853
:1008500020A02046E1688847002874D0252806D0CB
:10086000D4E901219047206A401C2062F1E700266C
:100870005F462046E16888472028054607DB312D82
:1008800005D2781910F8200C08B10643F1E7B0073B
:1008900001D526F00406C4F81CA00027C4F818A04F
:1008A0002A2D09D0284603F0CBFA38B304EB870889
:1008B000303DC8F8185019E059F8041B204604EBE5
:1008C00087029161E1688847012F054618D1E069E8
:1008D000002820DA26F020061DE0D8F8180000EBEA
:1008E000800005EB40003038C8F818002046E16869
:1008F0008847054603F0A4FA0028EED1012F0AD05C
:100900002E2D08D12046E16888477F1C0546022F1E
:1009100046F02006C4DBA069002803DA404246F016
:100920000106A061F00701D026F010066C2D0BD057
:10093000682D09D04C2D39D06A2D35D0742D35D085
:100940007A2D33D016E038E0E1682F4620468847FC
:10095000B842054609D16C2F26D04FF48060E1687B
:10096000064320468847054604E06C2F1AD04FF412
:10097000807006430DB3A5F14100192802D8203537
:1009800046F400664A462946204626604E46FFF752
:1009900035FC80B101280BD0F61D26F0070000F1D0
:1009A000080956E74020E4E78020D8E70020D6E792
:1009B00006F104094DE7284652E7206ABDE8F09F9A
:1009C000AC36000030B5B0F10A0271F100034FEA15
:1009D000900E4EEA817EB0EB0E0061EB91014FEA82
:1009E000101E4EEA017E10EB0E0041EB11114FEA92
:1009F000102E4EEA016E10EB0E0041EB11214FEA72
:100A0000104E4EEA014E10EB0E0041EB1141401822
:100A100041F100014FEAD00040EA41704FEAD101B4
:100A20004FEA810444EA907410EB800544EB010422
:100A30006D1944EB0404521BA3414FF0000348BF5F
:100A40000A3200D530BD401C41F1000130BD2DE916
:100A5000F0470D4699469246044600F12408016885
:100A6000880604D5E06921F01001216000E0012032
:100A7000A84201DD471B00E00027A1697A1902EBBB
:100A80000900081AA0612078C00602D42046FFF7AA
:100A9000F2FC002608E0D4E901211AF8060090478C
:100AA000206A401C761C20624E45F4DB2078C0068C
:100AB0000AD52046FFF7DFFC06E0D4E9012130200B
:100AC0009047206A401C2062381EA7F10107F4DC21
:100AD00007E0D4E9012118F805009047206A401C7E
:100AE0002062281EA5F10105F3DC2046FFF7D9FCA2
:100AF0002078000602D50220BDE8F0870120FBE740
:100B00002DE9FF4F0C461E464FF0FF378BB0D2E960
:100B10000001DDF860800A908A46C1F30A5505B9E4
:100B20003D46002108464FF00000BAF1000F00F4E6
:100B3000400005DA00EB80004FF4400101EA50006C
:100B40004FEA9059B9F1010F00DDB9460A9850EA11
:100B50004A000ED044F61050A5F2FF3545432F143D
:100B6000B8F1000F1ED07542291E1EDDC9F100022A
:100B70001CE0B8F1010F4FF0000001D0302103E07C
:100B8000F24305E02154401CB042FBDB304600221A
:100B9000002121540B99C1F80880C1E900200FB051
:100BA000BDE8F08FBD1B6D1CDEE74A4600DA6942E6
:100BB00006A800F00FFC06AB93E8070003AB83E840
:100BC000070050460A9902F05AFD8DE80700A0F58B
:100BD00000501F3800900398002D0ADD42F21F01DB
:100BE0004A460844002303A90390684602F0C4FF64
:100BF00009E0A0F500504A461F38002303A90390DE
:100C0000684602F0CEFF8DE807000004000C03D018
:100C10004FF0FF30410800E01046B8F1000F03D05C
:100C20000022009215461EE0751E05D4FFF7CAFE8D
:100C3000303262556D1EF9D5B3460122084302D009
:100C400000227F1C04E02078302801D100227F1E82
:100C5000002A099784D01DE0112D07DAFFF7B2FEB4
:100C6000303262556D1C50EA0102F5D1084302D0C2
:100C70000098C8B10EE00021681E05E0235C625CAC
:100C800063542254401E491C8142F7DBAB46A81B2B
:100C9000401E0990002004F80B000B98099AC0F838
:100CA0000880C0E9002B7AE711264FF0000857E7CB
:100CB0002DE9F04F88460446D21D22F0070191B07D
:100CC000D1E90001CDE90A0103F0A2F802460B9830
:100CD000C00F01D02D2007E02068810701D52B200F
:100CE00002E0202101EAC000032A099001D0072A6E
:100CF00005DB03464146204600F02CFB0BE1207843
:100D0000800601D5E06900E00620B8F1650F814654
:100D100006D0B8F1660F18D0B8F1670F70D131E086
:100D20000020B9F1110F009001DB112301E009F15E
:100D300001030AAA01A90CA8FFF7E2FEDDE90C7085
:100D4000002609F10105834647E001204B4600904B
:100D50004FF000470AAA01A90CA8FFF7D1FEDDE970
:100D60000DB00C995D46002610B909F101000D186F
:100D7000B9EB050003D4C0F1FF3609F10105A5EB7D
:100D800009002BE0B9F1010F01DA4FF00109002051
:100D9000B9F1110F0090484601DD112300E0034630
:100DA0000AAA01A90CA8FFF7ABFEDDE90C704D46BD
:100DB00000268346207800070AD4AB4500DA5D465A
:100DC00001A8012D04DD411911F8011C302907D0BB
:100DD0004F4502DA17F1040F04DA012082460FE0D2
:100DE0006D1EEEE7002F02DCED1B3E4403E0781C95
:100DF000A84200DD7D1CB81B00F1010A4FF000473E
:100E00002078000703D4AA4501DB4FF0FF3A002108
:100E1000B7F1004F0DF143088DF8431024D00220A4
:100E20002B23002F01DA7F422D230A21021EA0F17D
:100E3000010000DC5FB197FBF1FC97FBF1F201FBD5
:100E40001C7C17460CF1300C08F801CDEEE7A8F138
:100E5000010003702188090501D5452100E06521C5
:100E6000A0F1010800F8011C09980FA9A1EB0807DF
:100E7000FF1D00B10120411901EBEA70A16938445E
:100E8000081A401EA0612078C00602D42046FFF751
:100E9000F2FA099828B1D4E901219047206A401C50
:100EA00020622078C00622D52046FFF7E4FA1EE033
:100EB000002E04DBB34502DD01A8805D00E0302098
:100EC000D4E901219047206A401C2062761CAAF1D7
:100ED00001005FEA000A0AD100F038FAC068016830
:100EE000405CD4E901219047206A401C2062281E02
:100EF000A5F10105DCDC07E0D4E9012118F8010BBC
:100F00009047206A401C2062381EA7F10107F3DCDD
:100F10002046FFF7C6FA032011B041E62DE9F04F55
:100F200004460D46D21D22F0070089B0D0E9009793
:100F30004846394602F06CFF0246F80F01D02D23D7
:100F400007E02068810701D52B2302E0202101EA78
:100F5000C0038DF820300BB1012000E00020032AEF
:100F6000824601D0072A04DB2946204600F0F2F928
:100F70003FE12078800601D40D2500E0E569C7F344
:100F80000A560D2D49DA00214FEA175B08464FF04B
:100F90000000002F00F4400007DA00EB80004FF45F
:100FA000400100EBD07001EA60008115012901DDEC
:100FB0004FF0FF3100224FEA850CBCF1180F06D329
:100FC0001346ACF118004FF08052C24003E04FF4DA
:100FD000801323FA0CF30CF10C0CBCF1200F04D39A
:100FE000ACF1200C09FA0CF001E007FA0CF0002932
:100FF0004FF0004801DD18B90FE00ED140450CD389
:1010000019EB02095F4121B9404502D19F4329EA0A
:101010000209BBEB175F00D0761C2088000502D5C3
:101020007B48784402E07A487844193808AA30238B
:1010300002F80A30037C0AF10101002E0AF1020ACB
:1010400053546A4602DC4FF0300101E04FF03101A9
:101050004FF001088DF8001002D0A6F2FF3603E031
:1010600059EA470100D06B4E002D02DC21780907B8
:1010700004D54FF002082E218DF80110C44600213E
:101080000BE0C7F303433F01C35C491C6D1E02F82C
:101090000830052908F1010801DA002DF1DC0021F2
:1010A0000CE000EB1973491C1B786D1E082902F82F
:1010B00008304FEA091908F1010801DA002DF0DCC7
:1010C00021688B0602D516E0A8F10108E04505DD90
:1010D00002EB080313F8013C302BF5D0B8F1000FF8
:1010E00009DD02EB080313F8013C2E2B03D109079D
:1010F00001D4A8F10108002D05DD3E2102F80810F9
:101100006D1E08F10108407C002E02F8080008F16D
:10111000010804DA2D20764202F8080002E02B20B4
:1011200002F808000A214FF47A70864208F101089B
:101130000BDB96FBF0F3303302F8083096FBF0F34C
:1011400008F1010800FB136601E0642E0CDB64204B
:1011500096FBF0F3303302F8083096FBF0F308F119
:10116000010800FB136601E00A2E06DB96FBF1F096
:10117000303002F8080008F1010896FBF1F001FB9D
:101180001060303002F80800A16908F1010808EB8E
:10119000050202EB0A00081AA0612078C00602D4FA
:1011A0002046FFF768F9216A08AE01EB0A002062C9
:1011B00004E0D4E9012116F8010B9047BAF1010AC5
:1011C000F7D22078C00602D52046FFF754F96E46C4
:1011D00009E016F8010B3E280FD0D4E90121904711
:1011E000206A401C2062B8F10108F2D22046FFF7C5
:1011F00058F909B00320BDE8F08F206A2844206226
:1012000003E0D4E90121302090476D1EEBD3F8E7CD
:10121000FA2E000002FCFFFF01694A1C02610878F7
:10122000704700B58FB0CDE9013100210591054926
:101230007944CDE9031011466846FFF7FFFA0FB075
:1012400000BD0000E5FFFFFF10B5436913B1AFF328
:10125000008001E0FFF748F9012010BD127800F18D
:1012600024010A7000224A700122EDE711684FF054
:10127000FF32E9E710B5436913B1AFF3008001E035
:10128000FFF7BEF9012010BD128800F1240182840D
:101290000022C2840122EDE711684FF0FF32E9E736
:1012A000007B00F0800070472DE9F04116460C46A7
:1012B000054600F043F8036893F80101012807D0C0
:1012C000FF2C12D8185D80B101202C70BDE8F08190
:1012D000D3F807013246214603F20713C718284600
:1012E000BC46BDE8F041002360474FF0FF30EDE71A
:1012F000754600F0EBF8AE4605006946534620F00F
:101300000700854618B020B5FEF7F2FFBDE8204083
:101310004FF000064FF000074FF000084FF0000BB1
:10132000AC46ACE8C009ACE8C009ACE8C009ACE820
:10133000C00921F007018D467047000010B500F08C
:1013400005F8001D10BD00BF352B00000048704798
:10135000300000202DE9F0411F46044603260168B5
:10136000072A01F4006004DB08B116A505E016A504
:1013700003E008B115A500E015A521F010002060DC
:10138000A069C01EA0610FB1401EA0612046FFF7FA
:1013900072F84FB1D4E9012138469047206A401CC9
:1013A0002062C01C206206E0206AFAE7D4E901212D
:1013B00015F8010B9047761EF8D22046FFF771F81A
:1013C000BDE8F0814E414E006E616E00494E460010
:1013D000696E66002DE9F047814616468AB03548A9
:1013E00078440DC88DE80D0032487844801C03AC69
:1013F0000DC884E80D0041F69B300844372190FB6E
:10140000F1F290FBF1F5A5F1800501FB12041B3C04
:1014100002D56442012000E00020DFF898A0804659
:101420000027FA44AAF1BE0A0EE0E0070AD03246CD
:10143000684607EB470101230AEB810102F0B1FB8B
:101440008DE8070064107F1C002CEED1194F7F44FB
:10145000AE3F19E0E80715D007EB04100DF1180AAC
:1014600090E80E008AE80E00C068F04201D1981999
:1014700008903246012306A903A802F092FB03ABB1
:1014800083E807006D10641C002DE3D14FF00103C9
:1014900032466946B8F1000F03A802D002F06CFB97
:1014A00001E002F07EFBC9E90001C9F808200AB09A
:1014B000BDE8F087CC2B000010B50446AFF30080E8
:1014C0002046BDE81040FEF7FEBE00000048704711
:1014D000100000200000000030B44FF0013C50F834
:1014E000042B51F8043BCCFA52F4D51A20D1FCB9A4
:1014F00050F8042B51F8043BCCFA52F4D51A17D10A
:10150000B4B950F8042B51F8043BCCFA52F4D51A74
:101510000ED16CB950F8042B51F8043BCCFA52F4BC
:10152000D51A05D1002CDAD030BC4FF0000070473E
:1015300029BAB1FA81F111F01801D1F120008440EB
:10154000F2D1CA40CB4012F0FF0213F0FF0330BCCF
:10155000D01A704780B58AB0002009900890079093
:1015600006900590FFE70020049043F63000C4F297
:101570000200016841F020010160006800F02000D5
:1015800004900498FFE741F20040C4F20200039087
:101590004FF4807101910022029200F017FA019A33
:1015A000029903980592012206920791089105A9D4
:1015B00000F018F80AB080BDFFE7FEE770470000B2
:1015C00081B0EFF3108072B60090FFE7FEE70000F5
:1015D00080B582B00190BDF8040001F075FF02B043
:1015E00080BD00008EB00D900C9100200A900990F3
:1015F00008900B90FFE70B980F2800F2CC81FFE7D3
:101600000B99012088400A900C9800680A990840BC
:10161000099009980A99884240F0B881FFE70C9830
:10162000406800F00300012807D0FFE70C984068ED
:1016300000F0030002282FD1FFE70D988068089082
:101640000B984100032000FA01F1089888430890A4
:101650000C98C0680B99490000FA01F108980843FA
:10166000089008980D9988600D98406808900B992B
:10167000012000FA01F10898884308900C9840680E
:10168000C0F300100B9900FA01F108980843089084
:1016900008980D994860FFE70C98406800F0030037
:1016A000032818D0FFE70D98C06808900B984100F8
:1016B000032000FA01F10898884308900C9880688C
:1016C0000B99490000FA01F108980843089008981E
:1016D0000D99C860FFE70C98406800F003000228ED
:1016E00026D1FFE70D980B996FF0030202EA510132
:1016F0000844006A08900B9800F0070081000F2052
:1017000000FA01F10898884308900C9800690B9939
:1017100001F00701890000FA01F1089808430890D8
:1017200008980D990B9B02EA530211440862FFE7E7
:101730000D98006808900B984100032000FA01F111
:101740000898884308900C98406800F003000B99B3
:10175000490000FA01F108980843089008980D998B
:1017600008600C9880798007002800F00E81FFE760
:10177000FFE70020079043F64400C4F2020001682E
:1017800041F480410160006800F4804007900798B0
:10179000FFE70B9820F0030043F60801C4F20101B3
:1017A000405808900B9800F0030081000F2000FAC9
:1017B00001F10898884308900D980021C4F20201B5
:1017C000884203D1FFE7002006905EE00D9840F2CA
:1017D0000041C4F20201884203D1FFE701200590D5
:1017E00050E00D9840F60001C4F20201884203D196
:1017F000FFE70220049042E00D9840F60041C4F259
:101800000201884203D1FFE70320039034E00D98E2
:1018100041F20001C4F20201884203D1FFE7042033
:10182000029026E00D9841F20041C4F20201884284
:1018300003D1FFE70520019018E00D9841F6000163
:10184000C4F20201884203D1FFE7062000900AE0BB
:101850000D9941F60042C4F202020820914208BFED
:1018600007200090FFE700980190FFE701980290A1
:10187000FFE702980390FFE703980490FFE70498BE
:101880000590FFE705980690FFE70698C0B20B9910
:1018900001F00301890000FA01F10898084308905B
:1018A00008980B9921F0030143F60802C4F20102E3
:1018B000885043F60840C4F2010000680890099976
:1018C0000898884308900C988079C006002805D5B0
:1018D000FFE70999089808430890FFE7089843F63E
:1018E0000841C4F20101086043F60C40C4F2010053
:1018F0000068089009990898884308900C988079A6
:101900008006002805D5FFE7099908980843089044
:10191000FFE7089843F60C41C4F20101086043F662
:101920000440C4F2010000680890099908988843AF
:1019300008900C9880798007002805D5FFE7099961
:10194000089808430890FFE7089843F60441C4F25A
:101950000101086043F60040C4F2010000680890ED
:1019600009990898884308900C988079C00728B195
:10197000FFE70999089808430890FFE7089843F69D
:101980000041C4F201010860FFE7FFE7FFE70B98A1
:1019900001300B902FE60EB07047000082B001902E
:1019A000ADF8021001980069BDF80210084204D099
:1019B000FFE701208DF8010003E000208DF8010011
:1019C000FFE79DF8010002B07047000082B001906F
:1019D000ADF802108DF801209DF8010028B1FFE755
:1019E000BDF802000199886105E0BDF8020000041D
:1019F00001998861FFE702B07047000040F258107B
:101A0000C2F200000068704740F20800C2F2000015
:101A1000027840F25811C2F20001086810440860D0
:101A20007047000080B543F60041C4F20201086827
:101A300040F400700860086840F48060086008683E
:101A400040F480700860032000F080F80F2000F060
:101A500005F800F03BF8002080BD000080B582B0A2
:101A6000009040F20400C2F20000006840F2080159
:101A7000C2F200010A784FF47A71B1FBF2F1B0FBC7
:101A8000F1F000F0B5FD20B1FFE701208DF807006F
:101A900018E000980F280DD8FFE700994FF0FF30AD
:101AA000002200F039F8009840F20C01C2F2000167
:101AB000086003E001208DF8070003E000208DF8A6
:101AC0000700FFE79DF8070002B080BD82B0FFE786
:101AD0000020019043F64400C4F20200016841F482
:101AE00080410160006800F4804001900198FFE7A8
:101AF000FFE70020009043F64000C4F202000168B6
:101B000041F080510160006800F080500090009822
:101B1000FFE702B07047000080B586B08DF817006F
:101B2000049103920020029001F072FC02909DF952
:101B30001700019002980499039A01F01BF80146DE
:101B4000019801F06DFC06B080BD000080B582B048
:101B50000190019801F086FC02B080BD80B584B090
:101B600002900191029820B9FFE701208DF80F0043
:101B700021E1019843F60041C4F20201096801F035
:101B80000701884212D9FFE7019943F60040C4F2E9
:101B900002000170006800F007000199884204D03B
:101BA000FFE701208DF80F0005E1FFE702980078BC
:101BB000800700282AD5FFE7029800784007002810
:101BC00009D5FFE743F60801C4F20201086840F4B2
:101BD000E0500860FFE7029800780007002809D568
:101BE000FFE743F60801C4F20201086840F46040D0
:101BF0000860FFE743F60801C4F20201086820F01C
:101C0000F000029A926810430860FFE7029800789B
:101C1000C00700286ED0FFE702984068012811D164
:101C2000FFE743F60000C4F20200006800F4003150
:101C30000020B0EB514F04D1FFE701208DF80F00D9
:101C4000B9E02CE002984068022805D0FFE702982E
:101C50004068032811D1FFE743F60000C4F20200F8
:101C6000006800F000710020B0EB516F04D1FFE775
:101C700001208DF80F009EE010E043F60000C4F252
:101C80000200006800F002010020B0EB510F04D107
:101C9000FFE701208DF80F008DE0FFE7FFE743F637
:101CA0000801C4F20201086820F00300029A526899
:101CB00010430860FFF7A2FE0090FFE743F608001C
:101CC000C4F20200006800F00C0002994968B0EB11
:101CD000810F0ED0FFE7FFF791FE0099401A41F205
:101CE0008931884204D3FFE703208DF80F0062E0BA
:101CF000E4E7FFE7019843F60041C4F202010968F6
:101D000001F00701884212D2FFE7019943F6004033
:101D1000C4F202000170006800F0070001998842D7
:101D200004D0FFE701208DF80F0044E0FFE70298A0
:101D30000078400700280CD5FFE743F60801C4F2FD
:101D40000201086820F4E050029AD268104308604B
:101D5000FFE702980078000700280DD5FFE743F65B
:101D60000801C4F20201086820F46040029A126976
:101D700040EAC2000860FFE700F04CF843F60801B3
:101D8000C4F202010968C9B20A0943F6E471C0F657
:101D90000001895CC84040F20401C2F20001086001
:101DA00040F20C00C2F200000068FFF757FE00206E
:101DB0008DF80F00FFE79DF80F0004B080BD000014
:101DC00040F20400C2F200000068704780B5FFF7DF
:101DD000F7FF43F60801C4F202010968C1F3822249
:101DE00043F6F471C0F60001895CC84080BD000074
:101DF00080B5FFF7E5FF43F60801C4F20201096868
:101E000089B24A0B43F6F471C0F60001895CC84000
:101E100080BD000080B586B000200590049003903E
:101E2000029043F60800C4F20200006800F00C00C3
:101E30000146019140B1FFE7019804280AD0FFE76D
:101E4000019808280CD04FE042F20040C0F2F400A4
:101E500002904FE047F64000C0F27D10029049E04A
:101E600043F60400C4F20200016801F03F0105914D
:101E700000684002002813D5FFE743F60400C4F2CF
:101E800002000068C0F3881047F64001C0F27D11DF
:101E9000A0FB0101059A0023FEF73DFA049012E031
:101EA00043F60400C4F202000068C0F3881042F256
:101EB0000041C0F2F401A0FB0101059A0023FEF7E6
:101EC0002AFA0490FFE743F60400C4F20200006817
:101ED00000F44031022000EBD130039004980399C4
:101EE000B0FBF1F0029005E042F20040C0F2F400D5
:101EF0000290FFE7029806B080BD000080B586B072
:101F00000490049820B9FFE701208DF8170050E3F2
:101F100004980078C007002800F0A580FFE743F68A
:101F20000800C4F20200006800F00C00042813D07E
:101F3000FFE743F60800C4F20200006800F00C005E
:101F400008281ED1FFE743F60400C4F2020000682F
:101F50004002002815D5FFE743F60000C4F2020056
:101F6000006800F400310020B0EB514F08D0FFE7CB
:101F70000498406820B9FFE701208DF8170018E3A6
:101F800070E0FFE704984068B0F5803F09D1FFE7B3
:101F900043F60001C4F20201086840F48030086092
:101FA00020E004984068B0F5A02F0DD1FFE743F67C
:101FB0000001C4F20201086840F48020086008684B
:101FC00040F4803008600CE043F60001C4F20201E6
:101FD000086820F480300860086820F480200860D9
:101FE000FFE7FFE7FFE704984068E8B1FFE7FFF786
:101FF00005FD0390FFE743F60000C4F2020000680D
:1020000000F400310020B0EB514F0CD1FFE7FFF797
:10201000F5FC0399401A652804D3FFE703208DF8E7
:102020001700C6E2E7E71CE0FFF7E8FC0390FFE7D4
:1020300043F60000C4F20200006800F40031002002
:10204000B0EB514F0CD0FFE7FFF7D8FC0399401AD3
:10205000652804D3FFE703208DF81700A9E2E7E71E
:10206000FFE7FFE7FFE7049800788007002840F1CA
:102070009680FFE743F60800C4F20200006810F003
:102080000C0F13D0FFE743F60800C4F2020000680B
:1020900000F00C0008282CD1FFE743F60400C4F23E
:1020A000020000684002002823D4FFE743F6000046
:1020B000C4F20200006800F002010020B0EB510FF2
:1020C00009D0FFE70498C068012804D0FFE7012089
:1020D0008DF817006DE243F60001C4F202010868B2
:1020E00020F0F800049A126940EAC2000860FFE795
:1020F00054E00498C06870B3FFE70021C4F24721A0
:1021000001200860FFF77AFC0390FFE743F6000028
:10211000C4F20200006800F002010020B0EB510F91
:102120000CD1FFE7FFF76AFC0399401A032804D398
:10213000FFE703208DF817003BE2E7E743F60001D5
:10214000C4F20201086820F0F800049A126940EA1B
:10215000C200086021E00021C4F24721002008608D
:10216000FFF74CFC0390FFE743F60000C4F20200C7
:10217000006800F002010020B0EB510F0CD0FFE727
:10218000FFF73CFC0399401A032804D3FFE7032020
:102190008DF817000DE2E7E7FFE7FFE7FFE7049898
:1021A0000078000700284BD5FFE70498406918B372
:1021B000FFE740F68061C4F2472101200860FFF785
:1021C0001DFC0390FFE743F67400C4F202000068B0
:1021D00000F002010020B0EB510F0CD1FFE7FFF738
:1021E0000DFC0399401A032804D3FFE703208DF860
:1021F0001700DEE1E7E722E040F68061C4F2472104
:1022000000200860FFF7FAFB0390FFE743F6740035
:10221000C4F20200006800F002010020B0EB510F90
:102220000CD0FFE7FFF7EAFB0399401A032804D319
:10223000FFE703208DF81700BBE1E7E7FFE7FFE7C3
:10224000049800784007002840F1CE80FFE7002086
:102250008DF8070043F64000C4F202000068C00099
:10226000002815D4FFE7FFE70020009043F6400068
:10227000C4F20200016841F080510160006800F082
:10228000805000900098FFE701208DF80700FFE7DD
:1022900047F20000C4F200000068C005002822D404
:1022A000FFE747F20001C4F20001086840F48070C3
:1022B0000860FFF7A3FB0390FFE747F20000C4F2BA
:1022C00000000068C00500280CD4FFE7FFF796FB6C
:1022D0000399401A032804D3FFE703208DF8170061
:1022E00067E1EAE7FFE7FFE704988068012809D182
:1022F000FFE743F67001C4F20201086840F00100F4
:1023000008601FE00498806805280DD1FFE743F6B8
:102310007001C4F20201086840F004000860086817
:1023200040F0010008600CE043F67001C4F20201C5
:10233000086820F001000860086820F004000860C8
:10234000FFE7FFE7FFE704988068F8B1FFE7FFF7D2
:1023500055FB0390FFE743F67000C4F202000068EB
:1023600000F002010020B0EB510F0ED1FFE7FFF7A4
:1023700045FB0399401A41F28931884204D3FFE7B3
:1023800003208DF8170014E1E5E71EE0FFF736FBA8
:102390000390FFE743F67000C4F20200006800F00B
:1023A00002010020B0EB510F0ED0FFE7FFF726FB34
:1023B0000399401A41F28931884204D3FFE7032090
:1023C0008DF81700F5E0E5E7FFE79DF80700012825
:1023D00009D1FFE743F64001C4F20201086820F08A
:1023E00080500860FFE7FFE704988069002800F04C
:1023F000DC80FFE743F60800C4F20200006800F04A
:102400000C00082800F08580FFE704988069022806
:102410005CD1FFE76021C4F2472100200860FFF78C
:10242000EDFA0390FFE743F60000C4F202000068F3
:1024300000F000710020B0EB516F0CD0FFE7FFF708
:10244000DDFA0399401A032804D3FFE703208DF82F
:102450001700AEE0E7E70499C869D1F820C04B6ADD
:102460008A6A40EA0C0040EA8310D2034FF6FF73F9
:102470009A43A2F580321043C96A40EA016043F6EC
:102480000401C4F2020108606021C4F24721012066
:102490000860FFF7B3FA0390FFE743F60000C4F2C9
:1024A0000200006800F000710020B0EB516F0CD109
:1024B000FFE7FFF7A3FA0399401A032804D3FFE7C5
:1024C00003208DF8170074E0E7E721E06021C4F2F3
:1024D000472100200860FFF791FA0390FFE743F6D9
:1024E0000000C4F20200006800F000710020B0EBB0
:1024F000516F0CD0FFE7FFF781FA0399401A0328C8
:1025000004D3FFE703208DF8170052E0E7E7FFE769
:102510004AE004988069012804D1FFE701208DF882
:10252000170046E043F60400C4F20200006802907F
:1025300004988069012831D0FFE7029800F48000F8
:102540000499C969884229D1FFE7029800F03F0049
:102550000499096A884221D1FFE7029847F6C071C1
:1025600008400499496AB0EB811F17D1FFE7029830
:1025700000F440300499896AC9034FF6FF72914311
:10258000A1F58031884209D1FFE7029800F0706020
:102590000499C96AB0EB016F04D0FFE701208DF800
:1025A000170006E0FFE7FFE7FFE700208DF81700C0
:1025B000FFE79DF8170006B080BD000081B00090D5
:1025C0000098042809D1FFE74EF21001CEF2000175
:1025D000086840F00400086008E04EF21001CEF2F6
:1025E0000001086820F004000860FFE701B07047B0
:1025F00080B582B00190019800F068FD02B080BD06
:1026000080B582B00090009820B9FFE701208DF8D6
:1026100007003EE00098806908B1FFE700E0FFE7AF
:10262000009890F83D0040B9FFE70099002081F83C
:102630003C00009800F032F8FFE70099242081F870
:102640003D0000980168C86820F40050C8600098F8
:1026500000F0D4FD00980168086920F490400861FA
:1026600000980168486920F02A00486100980168D4
:10267000C86840F40050C860009900200864009ABF
:10268000202182F83D10009A82F83E108DF8070054
:10269000FFE79DF8070002B080BD000080B588B05C
:1026A00007900020069005900490039002900798F0
:1026B000006841F20001C4F20101884234D1FFE711
:1026C000FFE70020019043F64400C4F202000168D5
:1026D00041F010010160006800F0100001900198C5
:1026E000FFE7FFE70020009043F63000C4F202004D
:1026F000016841F001010160006800F001000090F4
:102700000098FFE74FF4C060029002200390002081
:10271000049003200590072006900020C4F20200D8
:1027200002A9FEF75FFFFFE708B080BD80B58AB061
:1027300008900791ADF81A200593002002900898A0
:1027400090F83D00202840F09080FFE7079820B1E6
:10275000FFE7BDF81A0020B9FFE701208DF8270038
:1027600087E0FFE7089890F83C00012804D1FFE7D4
:1027700002208DF827007CE00899012081F83C00B8
:10278000FFE7FFE70899002008640899212081F8F5
:102790003D00FFF733F90290BDF81A0008998884CC
:1027A000BDF81A000899C88408988068B0F5805F61
:1027B00009D1FFE70898006928B9FFE700200490D5
:1027C0000798039004E00798049000200390FFE727
:1027D000FFE70899002081F83C00FFE7FFE7089831
:1027E000C08C58B3FFE70898029B05996A461160B0
:1027F0008021002200F0A0FD20B1FFE703208DF82A
:10280000270036E0049858B9FFE7039800886FF373
:102810005F2008990968486003980230039008E037
:102820000498007808990968486004980130049079
:10283000FFE70899C88C0138C884D0E70898029B44
:1028400005996A4611604021002200F075FD20B113
:10285000FFE703208DF827000BE00899202081F87E
:102860003D0000208DF8270003E002208DF82700AE
:10287000FFE79DF827000AB080BD0000FFE7FEE7F4
:1028800080B582B00020C4F202000121FFF786F873
:10289000012804D1FFE701208DF8070003E00020A4
:1028A0008DF80700FFE79DF8070002B080BD00002B
:1028B00080B582B041F20000C4F202000421FFF7AB
:1028C0006DF820B9FFE701208DF8070003E0002034
:1028D0008DF80700FFE79DF8070002B080BD0000FB
:1028E00080B582B041F20000C4F202000821FFF777
:1028F00055F820B9FFE701208DF8070003E000201C
:102900008DF80700FFE79DF8070002B080BD0000CA
:1029100080B582B041F20000C4F202001021FFF73E
:102920003DF820B9FFE701208DF8070003E0002003
:102930008DF80700FFE79DF8070002B080BD00009A
:1029400081B040F24C11C2F2000100208872C872BE
:102950008DF80300FFE79DF80300032827DCFFE75D
:102960009DF8030040F20C11C2F2000101EB0012CD
:10297000642010819DF8030001EB00120220107109
:102980009DF8030001EB0012002090729DF80320D7
:1029900001EB0212D0729DF8032001EB02110873C3
:1029A000FFE79DF8030001308DF80300D3E740F204
:1029B0000C11C2F2000142F68100C0F6000008606E
:1029C00042F6B100C0F60000086142F6E100C0F630
:1029D0000000086242F61110C0F60000086301B062
:1029E0007047000080B58AB00020099008900790D9
:1029F00006900590FFE70020049043F63000C4F2F3
:102A00000200016841F010010160006800F0100050
:102A100004900498FFE7FFE70020039043F630009E
:102A2000C4F20200016841F001010160006800F099
:102A3000010003900398FFE71C20059000200190FF
:102A40000690079041F20000C4F2020005A902912D
:102A5000FEF7C8FD019802990122059206900790A1
:102A60000020C4F20200FEF7BDFD0AB080BD0000E8
:102A700080B5FFF765FFFFF7B5FF80BD80B58EB06D
:102A800000200D900C900B900A900990FFE7002019
:102A9000089043F63000C4F20200016841F00401DE
:102AA0000160006800F0040008900898FFE7FFE765
:102AB0000020079043F63000C4F20200016841F0A4
:102AC00020010160006800F0200007900798FFE7F0
:102AD00041F20040C4F2020002904FF4C86101913B
:102AE00001220392FEF772FF039A40F60000C4F23F
:102AF000020005901146FEF769FF019A02980399BA
:102B000009920A91002104910B910C9109A9069157
:102B1000FEF768FD039B049A0598069909930A93AA
:102B20000B920C92FEF75EFD0EB080BD80B582B0B8
:102B300040F2C800C2F20000019041F20001C4F26C
:102B4000010101604FF4E131416000218160C16009
:102B500001610C2242618161C161FFF751FD18B131
:102B6000FFE7FEF72DFDFFE702B080BDFFE7FEE7C0
:102B7000FFE7FEE788B0079006910592079800F0FE
:102B8000070004900498C0F10700052803D3FFE76D
:102B90000420019004E00498C0F107000190FFE7D1
:102BA0000198039004980430062803D8FFE700201A
:102BB000009003E0049803380090FFE7009802902B
:102BC00006980399012202FA01F101390840029B9B
:102BD000984005999A40013A1140084308B070475F
:102BE0007047000080B58AB00020099008900790D7
:102BF00006900590FFE70020049043F63000C4F2F1
:102C00000200016841F040010160006800F04000EE
:102C100004900498FFE741F60000C4F2020003901C
:102C20002021019101220292FEF7D0FE019A029921
:102C3000039805920691002107910221089105A9A8
:102C4000FEF7D0FC0AB080BD80B584B08DF80F00CF
:102C5000029100208DF80700FFE79DF80700062885
:102C600016DCFFE79DF807009DF80F10884204DA94
:102C7000FFE7029800F0EEF903E0002000F0EAF927
:102C8000FFE7FFE79DF8070001308DF80700E4E754
:102C900000F002F804B080BD80B541F60000C4F237
:102CA000020020210022FEF791FE4FF48C7000F00C
:102CB00023FC80BD80B582B041F60000C4F2020062
:102CC0000090202101910122FEF780FE00980199D9
:102CD00000BF00BF00BF00BF00BF00BF00BF00BFFC
:102CE00000BF00BF00BF00BF00BF00BF00BF00BFEC
:102CF00000BF00BF00BF00BF00BF00BF00BF00BFDC
:102D000000BF00BF00BF00BF00BF00BF00BF00BFCB
:102D100000BF00BF00BF00BF00BF00BF00BF00BFBB
:102D200000BF00BF00BF00BF00BF00BF00BF00BFAB
:102D300000BF00BF00BF00BF00BF0022FEF746FE7D
:102D400000BF00BF00BF00BF00BF00BF00BF00BF8B
:102D500000BF00BF00BF00BF00BF00BF00BF00BF7B
:102D600000BF00BF00BF00BF00BF00BF00BF00BF6B
:102D700000BF00BF00BF00BF00BF00BF00BF00BF5B
:102D800000BF00BF00BF00BF00BF00BF00BF00BF4B
:102D900000BF00BF00BF00BF00BF00BF00BF00BF3B
:102DA00000BF00BF00BF00BF00BF00BF00BF00BF2B
:102DB00000BF00BF00BF00BF00BF00BF00BF00BF1B
:102DC00000BF00BF00BF00BF00BF00BF00BF00BF0B
:102DD00000BF00BF00BF00BF00BF00BF00BF00BFFB
:102DE00000BF00BF00BF00BF00BF00BF00BF00BFEB
:102DF00000BF00BF00BF00BF00BF00BF00BF00BFDB
:102E000000BF00BF00BF00BF00BF00BF00BF00BFCA
:102E100000BF00BF00BF00BF00BF00BF00BF00BFBA
:102E200000BF00BF00BF00BF00BF00BF00BF00BFAA
:102E300000BF00BF00BF00BF00BF00BF00BF00BF9A
:102E400000BF00BF00BF00BF00BF00BF00BF00BF8A
:102E500000BF00BF00BF00BF00BF00BF00BF00BF7A
:102E600000BF00BF00BF00BF00BF00BF00BF00BF6A
:102E700000BF00BF00BF00BF00BF00BF00BF00BF5A
:102E800002B080BD80B582B041F60000C4F20200FD
:102E90000090202101910122FEF798FD00980199F0
:102EA00000BF00BF00BF00BF00BF00BF00BF00BF2A
:102EB00000BF00BF00BF00BF00BF00BF00BF00BF1A
:102EC00000BF00BF00BF00BF00BF00BF00BF00BF0A
:102ED00000BF00BF00BF00BF00BF00BF00BF00BFFA
:102EE00000BF00BF00BF00BF00BF00BF00BF00BFEA
:102EF00000BF00BF00BF00BF00BF00BF00BF00BFDA
:102F000000BF00BF00BF00BF00BF00BF00BF00BFC9
:102F100000BF00BF00BF00BF00BF00BF00BF00BFB9
:102F200000BF00BF00BF00BF00BF00BF00BF00BFA9
:102F300000BF00BF00BF00BF00BF00BF00BF00BF99
:102F400000BF00BF00BF00BF00BF00BF00BF00BF89
:102F500000BF00BF00BF00BF00BF00BF00BF00BF79
:102F600000BF00BF00BF00BF00BF00BF00BF00BF69
:102F700000BF00BF00BF00BF00BF00BF00BF00BF59
:102F800000BF00BF00BF00BF00BF00BF00BF00BF49
:102F900000BF00BF00BF00BF00BF00BF00BF00BF39
:102FA00000BF00BF00BF00BF00BF00BF00BF00BF29
:102FB00000BF00BF00BF00BF00BF00BF00BF00BF19
:102FC00000BF00BF00BF00BF00BF00BF00BF00BF09
:102FD00000BF00BF00BF00BF00BF00BF00BF00BFF9
:102FE0000022FEF7F3FC00BF00BF00BF00BF00BF20
:102FF00000BF00BF00BF00BF00BF00BF00BF00BFD9
:1030000000BF00BF00BF00BF00BF00BF00BF00BFC8
:1030100000BF00BF00BF00BF00BF00BF00BF00BFB8
:1030200000BF00BF00BF00BF00BF00BF00BF00BFA8
:1030300000BF00BF00BF00BF00BF00BF00BF00BF98
:1030400000BF00BF00BF00BF00BF00BF00BF00BF88
:1030500002B080BD80B582B001909DF8050000F0FF
:103060000BF89DF8060000F007F89DF8040000F04A
:1030700003F802B080BD000080B582B08DF8070073
:1030800000208DF80600FFE79DF80600072818DCF1
:10309000FFE79DF807000006002803D5FFE7FFF7CC
:1030A000F1FE02E0FFF706FEFFE79DF80700400093
:1030B0008DF80700FFE79DF8060001308DF8060047
:1030C000E2E702B080BD00007047000080B582B02A
:1030D000009000980138B0F1807F03D3FFE7012012
:1030E000019019E0009801384EF21401CEF200016F
:1030F00008604FF0FF300F2100F092F94EF21801F6
:10310000CEF20001002008604EF21002CEF2000262
:10311000072111600190FFE7019802B080BD000017
:1031200080B5FEF771FC80BD80B594B008A8302151
:10313000FDF776F900200790069005900490039023
:10314000FFE70020029043F64000C4F2020001684D
:1031500041F080510160006800F0805002900298B8
:10316000FFE7FFE70020019047F20000C4F20000F3
:10317000016841F480410160006800F480400190E2
:103180000198FFE7012008904FF480300990022059
:103190000E904FF480010F91192110914FF4A871F6
:1031A000119112900420139008A8FEF7A7FE18B101
:1031B000FFE7FEF705FAFFE70F20039002200490D7
:1031C000002005904FF4A05006904FF480500790D7
:1031D00003A80521FEF7C2FC18B1FFE7FEF7F0F9DE
:1031E000FFE714B080BD00004EF68851CEF200011A
:1031F000086840F4700008607047000080B586B031
:10320000059005980068006920F44050059A1168FF
:10321000D26810430861059988680B694A69C969D1
:10322000184310430843049005980068C06849F2A9
:103230000C6188430499084305990968C86005989A
:103240000068406920F44070059A11689269104343
:1032500048610598006841F20001C4F2010188420A
:1032600009D0FFE70598006841F20041C4F201016E
:10327000884204D1FFE7FEF7BBFD039003E0FEF7B1
:10328000A5FD0390FFE70598C069B0F5004F29D16F
:10329000FFE703981921A0FB0101059A1368029327
:1032A00053685A00DB0FFDF736F80299864648F25C
:1032B0001F53C5F2EB13AEFB0320420910014FF080
:1032C000640C02FB1CEC322202EBCC02A2FB0332A8
:1032D000F82303EA521300EB4300C2F342121044F6
:1032E000886026E003981921A0FB0101059A136864
:1032F000019353689A009B0FFDF70DF801998446DE
:1033000048F21F52C5F2EB12ACFB023043096420B5
:1033100003FB10CC322000EB0C10A0FB0202F020CB
:1033200000EA521000EB0310C2F34312104488600D
:10333000FFE706B080BD000080B588B0DDF828C08A
:10334000069005918DF813200393FFE70698006817
:10335000006805990840401AB0FA80F040099DF8CD
:103360001310884249D1FFE70A980130002843D062
:10337000FFE70A9840B1FFE7FEF740FB0399401AC8
:103380000A99884237D9FFE7FFE7FFE70698006808
:1033900050E8030F20F4D0700290FFE702990698DE
:1033A000026842E803100028F0D1FFE7FFE7FFE7DB
:1033B000FFE70698006850E8050F20F00100019033
:1033C000FFE701990698026842E805100028F0D14D
:1033D000FFE7FFE70699202081F83D00069981F874
:1033E0003E00FFE70699002081F83C00FFE703203C
:1033F0008DF81F0005E0FFE7A8E700208DF81F000B
:10340000FFE79DF81F0008B080BD0000FFE7FEE762
:103410004EF60C50CEF200000068C0F30220704758
:1034200082B08DF8070000919DF9070000280AD4AA
:10343000FFE7009800019DF907104EF20042CEF21E
:10344000000288540BE0009800019DF8071001F07D
:103450000F014EF61452CEF200028854FFE702B07C
:103460007047000083B00290029800F007000090BF
:103470004EF60C51CEF200010868019001984FF60B
:10348000FF02104001900198009A40EA02200022B9
:10349000C0F2FA52104301900198086003B07047DF
:1034A00081B0009001B0704780B582B08DF8070000
:1034B0000420FFF783F89DF8070040F2C401C2F230
:1034C0000001086002B080BD80B582B0ADF8060092
:1034D00000200090FFE70098BDF80610884209D24E
:1034E000FFE74FF47A7000F007F8FFE7009801302B
:1034F0000090F0E702B080BD86B0059000200190FA
:103500004EF21400CEF2000000680090059840F2E0
:10351000C401C2F200010968484304904EF2180049
:10352000CEF2000000680390FFE74EF21800CEF2E2
:103530000000006802900298039988421ED0FFE7BD
:1035400002980399884207D2FFE703980299411A2B
:1035500001980844019008E000980299401A0399E4
:103560000144019808440190FFE7029803900198F4
:103570000499884201D3FFE701E0FFE7D5E706B0F1
:103580007047000082B001900091FFE741F2000017
:10359000C4F2010000684006002801D4FFE7F5E707
:1035A0009DF8040041F20401C4F201010860019891
:1035B00002B0704710B58AB00020099043F6C87079
:1035C000C0F60000016842688368D0F80CC0D0F8EB
:1035D00010E044690694CDF814E0CDF810C00393D0
:1035E0000292019180690790FEF71CFAA820FFF76C
:1035F0005BFFFFF799FDFFF741FAFFF739FAFDF797
:10360000A9FFFFF793FAFFF7EDFA40F2C800C2F204
:10361000000044F20701C0F600010D224FF47A7356
:10362000FFF784F843F6FC70C0F60000FCF7ECFEF0
:10363000FFE700208DF8220001208DF82100FFE730
:103640009DF82200062819DCFFE79DF821009DF86F
:10365000222001A951F82210FFF7F6FA4FF4FA7070
:10366000FDF7B6FFFFE79DF8220001308DF822003C
:103670009DF8210001308DF82100E1E7D9E75FEAEC
:10368000400C08BF91F0000F4FEA8C234FEAC12293
:1036900043EA51514FEA1C5018BF00F5F0404FEA81
:1036A000300018BF41F000415FEA6C5C00F02980F7
:1036B000BCF1FF3F08BF40F080407047130C06BFCD
:1036C00012044FF0100C4FF0000C130E04BF120246
:1036D0000CF1080C130F04BF12010CF1040C930F32
:1036E00004BF92000CF1020CD30F04BF52000CF186
:1036F000010C11464FF00002A0F11F00A0EB0C00DE
:10370000704711F0004F08BF704731F000413FF49F
:10371000D5AF0B0C06BF09044FF0100C4FF0000C96
:103720000B0E04BF09020CF1080C0B0F04BF0901BA
:103730000CF1040C8B0F04BF89000CF1020CCB0FB1
:1037400004BF49000CF1010CCCF1200322FA03F371
:1037500041EA030102FA0CF2A0EB0C0000F10100B7
:103760007047000023F07F4720F07F4C80EA030081
:1037700000F00040ACEB070303F57C5303F1FF03BB
:103780002DE9804909B44FEA144324EA03484FEA7B
:10379000154B25EA0B4E0FF2042606EB13273E7855
:1037A00003FB0667C7F5000707FB06F64FEAD64698
:1037B00006F102064FEA543707FB066CCCF1005CB9
:1037C0004FEA1C472CEA074C0CFB06F507FB06F4F6
:1037D00004EB15464FEA961649085FEA320234BFF9
:1037E00000204FF000404FEAD13706FB07FC4FEABC
:1037F0001C4C0CFB0BF7D21B03FB0CF761EB070116
:103800000CFB0EF7B0EB074072EB17420CFB08F70E
:1038100034BFA2EB0742B2EB074261EB17414FEA1C
:103820000C444FEA910706FB07FC4FEA1C4C0CFBCB
:103830000BF7B0EBC74072EB573203FB0CF734BF0A
:10384000A2EBC742B2EBC74261EB57310CFB0EF75C
:10385000B0EBC70072EB57720CFB08F734BFA2EB5A
:10386000C702B2EBC70261EB57714FEA816141EACF
:1038700092114FEA826242EA90124FEA806004EBB2
:10388000CC04039F4FEAD13706FB07FC4FEA1C4CE0
:103890000CFB0BF7D21B03FB0CF761EB07010CFBD6
:1038A0000EF7B0EB074072EB17420CFB08F734BF82
:1038B000A2EB0742B2EB074261EB17414FEA8C558E
:1038C00004EB9C244FEA910706FB07FC4FEA1C4CD3
:1038D0000CFB0BF7B0EBC74072EB573203FB0CF756
:1038E00034BFA2EBC742B2EBC74261EB57310CFBCE
:1038F0000EF7B0EBC70072EB57720CFB08F734BF42
:10390000A2EBC702B2EBC70261EB57714FEA8161CC
:1039100041EA92114FEA826242EA90124FEA8060D5
:1039200015EB4C2544F100044FEAD13706FB07FCA8
:103930004FEA1C4C0CFB0BF7D21B03FB0CF761EBA3
:1039400007010CFB0EF7B0EB074072EB17420CFBC4
:1039500008F734BFA2EB0742B2EB074261EB174115
:103960004FEA813141EA92414FEA823242EA904283
:103970004FEA80304FEA0C7615EB1C1544F1000439
:1039800048EA03434EEA0B484FF0000EB2EB080C36
:1039900071EB030724BF624639464EEB0E0E4FF023
:1039A000000B0018524149414BEB0B0BB2EB080CDA
:1039B00071EB03077BF1000B24BF624639464EEBE7
:1039C0000E0E4FF0000B0018524149414BEB0B0B10
:1039D000B2EB080C71EB03077BF1000B24BF6246CE
:1039E00039464EEB0E0E51EA020718BF46F00106AB
:1039F00016EB0E7655F1000254F1000103D5BDE837
:103A00008901BDE80088BDE88901BDE80048B61914
:103A1000524141EB0101A3F10103704780807F7E99
:103A20007D7C7B7A79787776767574737271717034
:103A30006F6E6E6D6C6C6B6A6A69686867666665E6
:103A40006464636362616160605F5F5E5E5D5D5C74
:103A50005C5B5B5A5A5959585857575656555555E5
:103A60005454535352525251515050504F4F4F4E45
:103A70004E4D4D4D4C4C4C4B4B4B4A4A4A49494993
:103A800048484847474747464646454545444444D5
:103A90004443434343424242424141419C46002BFE
:103AA00030D477002BD04FEA37071CB503B44FF062
:103AB00010004FF01001BAF1000F06D0BCF1000F5A
:103AC000DCBF40F0080040F008014FF000000FBCE0
:103AD000BDE810400BF1010BBBF1010F08BF5FEA1D
:103AE000170722BF12F1010211F101014FF000414D
:103AF00043F1000300F0004043EA00007047F9D3AF
:103B00005708D0E746EA06464FEA164613F1400F3B
:103B10001FDD13F1200FDFBF16430A4600212033BB
:103B20005B42BED0C3F1200746EA06464FEA16467E
:103B300002FA07F746EA070622FA03F2C3F1200762
:103B400001FA07F742EA070221FA03F14FF00003F6
:103B5000A7E746EA020646EA06464FEA164646EA5E
:103B60000106BCBF46EA0646360C4FF000034FF094
:103B700000024FF0000194E72DE9804C70B49A46A2
:103B8000934691E8380007C831EA400C48BF34EA50
:103B9000430C03D5FFF7E6FDFFF780FFF0BCBDE85F
:103BA000008C2DE9804C70B49A46934691E8380019
:103BB00007C810F0804F08BF13F0804F03D100F00A
:103BC00005F8FFF76BFFF0BCBDE8008C20F07F47E5
:103BD00023F07F4C80EA030000F0004007EB0C0369
:103BE000A3F57C53A3F1FE0392F0000F00F0B38025
:103BF00095F0000F00F077802DE901494FEA114060
:103C000021EA00484FEA144624EA064700FB06FC76
:103C100008FB06F607FB08F818EB06484CEB164CB9
:103C200000FB07F718EB07484CEB17404FEA124B25
:103C300022EA0B4E4FEA154625EA06470BFB06FC27
:103C40000EFB06F607FB0EFE1EEB064E4CEB164C6B
:103C50000BFB07F71EEB074E4CEB174B18EB0B0853
:103C600040F1000018EB0E0B58EB000840F100008B
:103C70008F1A4FF000014FF000063CBFC943661B8E
:103C800014BFB5EB040C00213CBFC943F61B4FEA3F
:103C9000174427EA04454FEA1C472CEA074C04FB6B
:103CA000076205FB07F70CFB05F616EB074642EB30
:103CB000174204FB0CFC16EB0C4642EB1C421BEBC0
:103CC000060658EB020241414EEA8E0E46EA9E0677
:103CD00001D5BDE80189B619524141EB0101A3F1BB
:103CE0000103BDE801894FEA144524EA05464FEA7D
:103CF000114721EA074C05FB07F406FB07F70CFB0D
:103D000006F111EB074144EB174405FB0CFC11EBEA
:103D10000C4144EB1C444FEA124722EA074C05FBD6
:103D200007F206FB07F70CFB06F616EB074642EB1D
:103D3000174205FB0CFC16EB0C4642EB1C456A18BF
:103D400054F1000148BF7047B619524141EB0101DF
:103D5000A3F10103704795F0000F37D04FEA1142ED
:103D600021EA02464FEA144724EA074C02FB07F116
:103D700006FB07F70CFB06F414EB074441EB174175
:103D800002FB0CFC14EB0C4441EB1C414FEA1547C1
:103D900025EA074C02FB07F506FB07F70CFB06F6C6
:103DA00016EB074645EB174502FB0CFC16EB0C46E1
:103DB00045EB1C42121951F1000148BF7047B6197A
:103DC000524141EB0101A3F1010370474FEA144551
:103DD00024EA05464FEA114721EA074C05FB07F1A3
:103DE00006FB07F70CFB06F212EB074241EB17410B
:103DF00005FB0CFC12EB0C4251EB1C414FF0000692
:103E000048BF7047921841EB0101A3F101037047CD
:103E100003B401984100009850EAC12018BF042063
:103E20004A0D18BF40F0010040F2FF72B2EB515F43
:103E300008BF40F00200012808BF052002B070470B
:103E400030380A2801D20120704700207047000056
:103E500010B500290AD00878002807D00548784412
:103E6000FDF73AFB002801D0002010BD024878443D
:103E700010BD0000DA010000D201000010B50029D9
:103E80000AD00878002807D005487844FDF724FBBD
:103E9000002801D0002010BD0248784410BD000069
:103EA000CA010000C2010000F1EE100A4FF6FF71D6
:103EB000C0F2C03120EA010040F04070E1EE100A8B
:103EC0007047FCF7F5BEFDF729B8000000000000C0
:103ED0000000000030313233343536373839414252
:103EE000434445464030580030313233343536375C
:103EF0003839616263646566403078000400000808
:103F0000000000000000000200010000103031320B
:103F100033343536373839616263646566787000EA
:103F200030313233343536373839414243444546EF
:103F30005850000002400000000000A000000000F7
:103F400005400000000000C8000000000C40000018
:103F50000000409C00000000194000000020BCBE92
:103F60000000000034400000BFC91B8E00000004A8
:103F7000B5400000504BCFD06607E2CF01000000F3
:103F80006C4100003E8251AADFEEA7340100000020
:103F9000D9420000DCB5A0E23A301F97FFFFFFFFD7
:103FA000B4450000FD25A0C8E9A3C14FFFFFFFFFF6
:103FB000FF3F00000000008000000000FF3F000005
:103FC00000000080000000000000FF0000A5FF00CE
:103FD00000FFFF0000800000FFFF0000FF00000066
:103FE00080008000000000000000000001020304C7
:103FF0000607080900000000010203047072696EE0
:10400000746628290D0A00496E69742066696E6914
:1040100073680D0A000000006841000800000020DD
:1040200010000000C40100087841000810000020C2
:1040300050070000E00100081C00000043000000E1
:10404000F8FFFFFF0C0000000E0000000F00000052
:104050002E0000001001000043000000F8FFFFFFE9
:10406000004040404040404040404141414141408B
:104070004040404040404040404040404040404040
:1040800040050202020202020202020202020202CF
:1040900002202020202020202020200202020202D4
:1040A000020290909090909010101010101010102C
:1040B0001010101010101010101010100202020238
:1040C000020288888888888808080808080808087C
:1040D0000808080808080808080808080202020278
:1040E0004000000000000000000000000000000090
:1040F00000000000000000000000000000000000C0
:1041000000000000000000000000000000000000AF
:10411000000000000000000000000000000000009F
:10412000000000000000000000000000000000008F
:10413000000000000000000000000000000000007F
:10414000000000000000000000000000000000006F
:10415000000000000000000000000000000000005F
:10416000000000000000000001000000006A1800CC
:08417000010000001000000036
:040000050800018965
:00000001FF
